8=FIX.4.4|9=107|35=V|34=1|49=TEST_COUNTERPARTY|52=20241115-05:27:22.833|56=AXUM_ENGINE|262=12348|263=0|264=1|146=1|55=AAPL|10=135|8=FIX.4.4|9=127|35=F|34=2|49=TEST_COUNTERPARTY|52=20241115-05:27:22.847|56=AXUM_ENGINE|11=12347|41=12345|54=1|55=AAPL|60=20241115-05:27:22.846|10=121|8=FIX.4.4|9=95|35=R|34=3|49=TEST_COUNTERPARTY|52=20241115-05:27:22.855|56=AXUM_ENGINE|131=12349|146=1|55=AAPL|10=071|8=FIX.4.4|9=136|35=D|34=4|49=TEST_COUNTERPARTY|52=20241115-05:27:22.864|56=AXUM_ENGINE|11=12346|38=50|40=2|44=152|54=2|55=AAPL|60=20241115-05:27:22.864|10=246|8=FIX.4.4|9=137|35=D|34=5|49=TEST_COUNTERPARTY|52=20241115-05:27:22.867|56=AXUM_ENGINE|11=12345|38=100|40=2|44=150|54=1|55=AAPL|60=20241115-05:27:22.867|10=038|8=FIX.4.4|9=107|35=V|34=6|49=TEST_COUNTERPARTY|52=20241115-05:27:23.093|56=AXUM_ENGINE|262=12348|263=0|264=1|146=1|55=AAPL|10=139|8=FIX.4.4|9=127|35=F|34=7|49=TEST_COUNTERPARTY|52=20241115-05:27:23.098|56=AXUM_ENGINE|11=12347|41=12345|54=1|55=AAPL|60=20241115-05:27:23.098|10=125|8=FIX.4.4|9=95|35=R|34=8|49=TEST_COUNTERPARTY|52=20241115-05:27:23.101|56=AXUM_ENGINE|131=12349|146=1|55=AAPL|10=061|8=FIX.4.4|9=136|35=D|34=9|49=TEST_COUNTERPARTY|52=20241115-05:27:23.104|56=AXUM_ENGINE|11=12346|38=50|40=2|44=152|54=2|55=AAPL|60=20241115-05:27:23.104|10=227|8=FIX.4.4|9=138|35=D|34=10|49=TEST_COUNTERPARTY|52=20241115-05:27:23.107|56=AXUM_ENGINE|11=12345|38=100|40=2|44=150|54=1|55=AAPL|60=20241115-05:27:23.107|10=059|8=FIX.4.4|9=138|35=D|34=11|49=TEST_COUNTERPARTY|52=20241115-05:27:27.074|56=AXUM_ENGINE|11=12345|38=100|40=2|44=150|54=1|55=AAPL|60=20241115-05:27:27.074|10=074|8=FIX.4.4|9=137|35=D|34=12|49=TEST_COUNTERPARTY|52=20241115-05:27:27.074|56=AXUM_ENGINE|11=12346|38=50|40=2|44=152|54=2|55=AAPL|60=20241115-05:27:27.074|10=034|8=FIX.4.4|9=138|35=D|34=13|49=TEST_COUNTERPARTY|52=20241115-05:27:27.089|56=AXUM_ENGINE|11=12345|38=100|40=2|44=150|54=1|55=AAPL|60=20241115-05:27:27.089|10=088|8=FIX.4.4|9=138|35=D|34=14|49=TEST_COUNTERPARTY|52=20241115-05:27:27.351|56=AXUM_ENGINE|11=12345|38=100|40=2|44=150|54=1|55=AAPL|60=20241115-05:27:27.351|10=073|8=FIX.4.4|9=137|35=D|34=15|49=TEST_COUNTERPARTY|52=20241115-05:27:27.352|56=AXUM_ENGINE|11=12346|38=50|40=2|44=152|54=2|55=AAPL|60=20241115-05:27:27.351|10=034|8=FIX.4.4|9=128|35=F|34=16|49=TEST_COUNTERPARTY|52=20241115-05:27:27.352|56=AXUM_ENGINE|11=12347|41=12345|54=1|55=AAPL|60=20241115-05:27:27.352|10=168|8=FIX.4.4|9=108|35=V|34=17|49=TEST_COUNTERPARTY|52=20241115-05:27:27.352|56=AXUM_ENGINE|262=12348|263=0|264=1|146=1|55=AAPL|10=192|