8=FIX.4.4|9=137|35=D|34=1|49=TEST_COUNTERPARTY|52=20240822-03:34:10.786|56=AXUM_ENGINE|11=12345|38=100|40=2|44=150|54=1|55=AAPL|60=20240822-03:34:10.777|10=028|8=FIX.4.4|9=136|35=D|34=2|49=TEST_COUNTERPARTY|52=20240822-03:34:10.816|56=AXUM_ENGINE|11=12346|38=50|40=2|44=152|54=2|55=AAPL|60=20240822-03:34:10.816|10=232|8=FIX.4.4|9=137|35=D|34=3|49=TEST_COUNTERPARTY|52=20240822-03:34:11.090|56=AXUM_ENGINE|11=12345|38=100|40=2|44=150|54=1|55=AAPL|60=20240822-03:34:11.090|10=008|8=FIX.4.4|9=137|35=D|34=4|49=TEST_COUNTERPARTY|52=20240822-03:34:11.620|56=AXUM_ENGINE|11=12345|38=100|40=2|44=150|54=1|55=AAPL|60=20240822-03:34:11.620|10=007|8=FIX.4.4|9=136|35=D|34=5|49=TEST_COUNTERPARTY|52=20240822-03:34:11.620|56=AXUM_ENGINE|11=12346|38=50|40=2|44=152|54=2|55=AAPL|60=20240822-03:34:11.620|10=223|8=FIX.4.4|9=127|35=F|34=6|49=TEST_COUNTERPARTY|52=20240822-03:34:11.621|56=AXUM_ENGINE|11=12347|41=12345|54=1|55=AAPL|60=20240822-03:34:11.621|10=102|8=FIX.4.4|9=107|35=V|34=7|49=TEST_COUNTERPARTY|52=20240822-03:34:11.624|56=AXUM_ENGINE|262=12348|263=0|264=1|146=1|55=AAPL|10=137|8=FIX.4.4|9=137|35=D|34=8|49=TEST_COUNTERPARTY|52=20240822-03:38:11.382|56=AXUM_ENGINE|11=12345|38=100|40=2|44=150|54=1|55=AAPL|60=20240822-03:38:11.377|10=033|8=FIX.4.4|9=136|35=D|34=9|49=TEST_COUNTERPARTY|52=20240822-03:38:11.414|56=AXUM_ENGINE|11=12346|38=50|40=2|44=152|54=2|55=AAPL|60=20240822-03:38:11.414|10=237|8=FIX.4.4|9=138|35=D|34=10|49=TEST_COUNTERPARTY|52=20240822-03:38:11.682|56=AXUM_ENGINE|11=12345|38=100|40=2|44=150|54=1|55=AAPL|60=20240822-03:38:11.682|10=077|8=FIX.4.4|9=138|35=D|34=11|49=TEST_COUNTERPARTY|52=20240822-03:38:12.214|56=AXUM_ENGINE|11=12345|38=100|40=2|44=150|54=1|55=AAPL|60=20240822-03:38:12.214|10=062|8=FIX.4.4|9=137|35=D|34=12|49=TEST_COUNTERPARTY|52=20240822-03:38:12.215|56=AXUM_ENGINE|11=12346|38=50|40=2|44=152|54=2|55=AAPL|60=20240822-03:38:12.215|10=024|8=FIX.4.4|9=128|35=F|34=13|49=TEST_COUNTERPARTY|52=20240822-03:38:12.216|56=AXUM_ENGINE|11=12347|41=12345|54=1|55=AAPL|60=20240822-03:38:12.216|10=159|8=FIX.4.4|9=108|35=V|34=14|49=TEST_COUNTERPARTY|52=20240822-03:38:12.219|56=AXUM_ENGINE|262=12348|263=0|264=1|146=1|55=AAPL|10=189|8=FIX.4.4|9=138|35=D|34=15|49=TEST_COUNTERPARTY|52=20240822-03:38:58.302|56=AXUM_ENGINE|11=12345|38=100|40=2|44=150|54=1|55=AAPL|60=20240822-03:38:58.297|10=095|8=FIX.4.4|9=137|35=D|34=16|49=TEST_COUNTERPARTY|52=20240822-03:38:58.335|56=AXUM_ENGINE|11=12346|38=50|40=2|44=152|54=2|55=AAPL|60=20240822-03:38:58.334|10=053|8=FIX.4.4|9=138|35=D|34=17|49=TEST_COUNTERPARTY|52=20240822-03:38:58.584|56=AXUM_ENGINE|11=12345|38=100|40=2|44=150|54=1|55=AAPL|60=20240822-03:38:58.584|10=108|8=FIX.4.4|9=138|35=D|34=18|49=TEST_COUNTERPARTY|52=20240822-03:38:59.062|56=AXUM_ENGINE|11=12345|38=100|40=2|44=150|54=1|55=AAPL|60=20240822-03:38:59.062|10=093|8=FIX.4.4|9=137|35=D|34=19|49=TEST_COUNTERPARTY|52=20240822-03:38:59.062|56=AXUM_ENGINE|11=12346|38=50|40=2|44=152|54=2|55=AAPL|60=20240822-03:38:59.062|10=053|8=FIX.4.4|9=128|35=F|34=20|49=TEST_COUNTERPARTY|52=20240822-03:38:59.065|56=AXUM_ENGINE|11=12347|41=12345|54=1|55=AAPL|60=20240822-03:38:59.065|10=183|8=FIX.4.4|9=108|35=V|34=21|49=TEST_COUNTERPARTY|52=20240822-03:38:59.068|56=AXUM_ENGINE|262=12348|263=0|264=1|146=1|55=AAPL|10=200|