8=FIX.4.4|9=107|35=V|34=1|49=TEST_COUNTERPARTY|52=20240816-08:48:05.896|56=AXUM_ENGINE|262=12348|263=0|264=1|146=1|55=AAPL|10=158|8=FIX.4.4|9=127|35=F|34=2|49=TEST_COUNTERPARTY|52=20240816-08:48:05.910|56=AXUM_ENGINE|11=12347|41=12345|54=1|55=AAPL|60=20240816-08:48:05.910|10=132|8=FIX.4.4|9=95|35=R|34=3|49=TEST_COUNTERPARTY|52=20240816-08:48:05.917|56=AXUM_ENGINE|131=12349|146=1|55=AAPL|10=084|8=FIX.4.4|9=136|35=D|34=4|49=TEST_COUNTERPARTY|52=20240816-08:48:05.929|56=AXUM_ENGINE|11=12346|38=50|40=2|44=152|54=2|55=AAPL|60=20240816-08:48:05.928|10=021|8=FIX.4.4|9=137|35=D|34=5|49=TEST_COUNTERPARTY|52=20240816-08:48:05.932|56=AXUM_ENGINE|11=12345|38=100|40=2|44=150|54=1|55=AAPL|60=20240816-08:48:05.932|10=052|8=FIX.4.4|9=107|35=V|34=6|49=TEST_COUNTERPARTY|52=20240816-08:48:06.177|56=AXUM_ENGINE|262=12348|263=0|264=1|146=1|55=AAPL|10=156|8=FIX.4.4|9=127|35=F|34=7|49=TEST_COUNTERPARTY|52=20240816-08:48:06.180|56=AXUM_ENGINE|11=12347|41=12345|54=1|55=AAPL|60=20240816-08:48:06.180|10=137|8=FIX.4.4|9=95|35=R|34=8|49=TEST_COUNTERPARTY|52=20240816-08:48:06.187|56=AXUM_ENGINE|131=12349|146=1|55=AAPL|10=089|8=FIX.4.4|9=136|35=D|34=9|49=TEST_COUNTERPARTY|52=20240816-08:48:06.190|56=AXUM_ENGINE|11=12346|38=50|40=2|44=152|54=2|55=AAPL|60=20240816-08:48:06.190|10=009|8=FIX.4.4|9=138|35=D|34=10|49=TEST_COUNTERPARTY|52=20240816-08:48:06.193|56=AXUM_ENGINE|11=12345|38=100|40=2|44=150|54=1|55=AAPL|60=20240816-08:48:06.193|10=097|